{
  "contractName": "AlastriaPublicKeyRegistry",
  "abi": [
    {
      "constant": true,
      "inputs": [],
      "name": "version",
      "outputs": [
        {
          "name": "",
          "type": "int256"
        }
      ],
      "payable": false,
      "stateMutability": "view",
      "type": "function"
    },
    {
      "constant": true,
      "inputs": [],
      "name": "previousPublishedVersion",
      "outputs": [
        {
          "name": "",
          "type": "address"
        }
      ],
      "payable": false,
      "stateMutability": "view",
      "type": "function"
    },
    {
      "constant": true,
      "inputs": [
        {
          "name": "",
          "type": "address"
        },
        {
          "name": "",
          "type": "uint256"
        }
      ],
      "name": "publicKeyList",
      "outputs": [
        {
          "name": "",
          "type": "bytes32"
        }
      ],
      "payable": false,
      "stateMutability": "view",
      "type": "function"
    },
    {
      "inputs": [],
      "payable": false,
      "stateMutability": "nonpayable",
      "type": "constructor"
    },
    {
      "anonymous": false,
      "inputs": [
        {
          "indexed": false,
          "name": "publicKey",
          "type": "bytes32"
        }
      ],
      "name": "PublicKeyRevoked",
      "type": "event"
    },
    {
      "anonymous": false,
      "inputs": [
        {
          "indexed": false,
          "name": "publicKey",
          "type": "bytes32"
        }
      ],
      "name": "PublicKeyDeleted",
      "type": "event"
    },
    {
      "constant": false,
      "inputs": [
        {
          "name": "publicKey",
          "type": "bytes32"
        }
      ],
      "name": "set",
      "outputs": [],
      "payable": true,
      "stateMutability": "payable",
      "type": "function"
    },
    {
      "constant": false,
      "inputs": [
        {
          "name": "publicKey",
          "type": "bytes32"
        }
      ],
      "name": "revokePublicKey",
      "outputs": [],
      "payable": false,
      "stateMutability": "nonpayable",
      "type": "function"
    },
    {
      "constant": false,
      "inputs": [
        {
          "name": "publicKey",
          "type": "bytes32"
        }
      ],
      "name": "deletePublicKey",
      "outputs": [],
      "payable": false,
      "stateMutability": "nonpayable",
      "type": "function"
    },
    {
      "constant": false,
      "inputs": [
        {
          "name": "subject",
          "type": "address"
        }
      ],
      "name": "currentPublicKey",
      "outputs": [
        {
          "name": "",
          "type": "bytes32"
        }
      ],
      "payable": false,
      "stateMutability": "nonpayable",
      "type": "function"
    },
    {
      "constant": false,
      "inputs": [
        {
          "name": "subject",
          "type": "address"
        },
        {
          "name": "publicKey",
          "type": "bytes32"
        }
      ],
      "name": "publicKeyStatus",
      "outputs": [
        {
          "name": "exists",
          "type": "bool"
        },
        {
          "name": "status",
          "type": "uint8"
        },
        {
          "name": "startDate",
          "type": "uint256"
        },
        {
          "name": "endDate",
          "type": "uint256"
        }
      ],
      "payable": false,
      "stateMutability": "nonpayable",
      "type": "function"
    }
  ],
  "bytecode": "0x608060405234801561001057600080fd5b506003600055610524806100256000396000f30060806040526004361061008d5763ffffffff7c01000000000000000000000000000000000000000000000000000000006000350416631993b4f9811461009257806354fd4d50146100ac5780636104464f146100d3578063a8c5916914610104578063a9fd973a1461011c578063c000ceee1461013d578063db80813f14610161578063f39c32381461016c575b600080fd5b34801561009e57600080fd5b506100aa6004356101cb565b005b3480156100b857600080fd5b506100c161025a565b60408051918252519081900360200190f35b3480156100df57600080fd5b506100e8610260565b60408051600160a060020a039092168252519081900360200190f35b34801561011057600080fd5b506100aa60043561026f565b34801561012857600080fd5b506100c1600160a060020a03600435166102fd565b34801561014957600080fd5b506100c1600160a060020a0360043516602435610379565b6100aa6004356103a9565b34801561017857600080fd5b50610190600160a060020a0360043516602435610490565b6040518415158152602081018460028111156101a857fe5b60ff16815260200183815260200182815260200194505050505060405180910390f35b3360009081526002602090815260408083208484529091529020805460ff16801561020a575060028154610100900460ff16600281111561020857fe5b105b1561025657805461ff0019166102001781554260028201556040805183815290517fc7a155c4482b9b68d8c683396c4c1c6ec3303f39766ae7d6ccc88272b7f5b6519181900360200190a15b5050565b60005481565b600154600160a060020a031681565b3360009081526002602090815260408083208484529091529020805460ff1680156102ae575060018154610100900460ff1660028111156102ac57fe5b105b1561025657805461ff0019166101001781554260028201556040805183815290517fe23e76c154822a25bd6dd330dcf4f1998f97c4c45cd64ecac9e096f56c2511f79181900360200190a15050565b600081600160a060020a038116151561031557600080fd5b600160a060020a038316600090815260036020526040812054111561036e57600160a060020a03831660009081526003602052604090208054600019810190811061035c57fe5b90600052602060002001549150610373565b600091505b50919050565b60036020528160005260406000208181548110151561039457fe5b90600052602060002001600091509150505481565b33600090815260026020908152604080832084845290915281205460ff16156103d157600080fd5b50426103e46103df336102fd565b61026f565b604080516080810182526001815260006020808301828152838501869052606084018390523383526002808352858420888552909252939091208251815460ff19169015151780825593519293909291839161ff0019169061010090849081111561044b57fe5b02179055506040828101516001808401919091556060909301516002909201919091553360009081526003602090815291812080549384018155815220019190915550565b60008080808086600160a060020a03811615156104ac57600080fd5b50505050600160a060020a0393909316600090815260026020818152604080842095845294905292902080546001820154919093015460ff8085169661010090950416945090929091505600a165627a7a723058205f149d7356e74fccb98e2d4cffc72bd3d3c22f33b474138fb387d58e861bc3970029",
  "source": "pragma solidity ^0.4.15;\n\n\ncontract AlastriaPublicKeyRegistry {\n\n    // This contracts registers and makes publicly avalaible the\n    // AlastriaID Public Keys hash and status, current and past.\n\n    //Variables\n    int public version;\n    address public previousPublishedVersion;\n\n    // Initially Valid.\n    enum Status {Valid, RevokedBySubject, DeletedBySubject}\n    struct PublicKey {\n        bool exists;\n        Status status; // Deleted keys shouldnt be used, not even to check previous signatures.\n        uint startDate;\n        uint endDate;\n    }\n    // Mapping (subject, publickey)\n    mapping(address => mapping(bytes32 => PublicKey)) private publicKeyRegistry;\n    // mapping subject => publickey\n    mapping(address => bytes32[]) public publicKeyList;\n\n\n    //Events, just for revocation and deletion\n    // event PublicKeySet (bytes32 publicKey); //Just for testing.\n    event PublicKeyRevoked (bytes32 publicKey);\n    event PublicKeyDeleted (bytes32 publicKey);\n\n    //Modifiers\n    modifier validAddress(address addr) {//protects against some weird attacks\n        require(addr != address(0));\n        _;\n    }\n\n    //Functions\n    /* constructor */\n    constructor () public {\n        version = 3;\n    }\n\n    // Sets new key and revokes previous\n    function set(bytes32 publicKey) payable public {\n        require(!publicKeyRegistry[msg.sender][publicKey].exists);\n        uint changeDate = now;\n        revokePublicKey(currentPublicKey(msg.sender));\n        publicKeyRegistry[msg.sender][publicKey] = PublicKey(\n            true,\n            Status.Valid,\n            changeDate,\n            0\n        );\n        publicKeyList[msg.sender].push(publicKey);\n    }\n\n    function revokePublicKey(bytes32 publicKey) public {\n        PublicKey storage value = publicKeyRegistry[msg.sender][publicKey];\n        // only existent no backtransition\n        if (value.exists && value.status < Status.RevokedBySubject) {\n            value.status = Status.RevokedBySubject;\n            value.endDate = now;\n            emit PublicKeyRevoked(publicKey);\n        }\n    }\n\n    function deletePublicKey(bytes32 publicKey) public {\n        PublicKey storage value = publicKeyRegistry[msg.sender][publicKey];\n        // only existent\n        if (value.exists && value.status < Status.DeletedBySubject) {\n            value.status = Status.DeletedBySubject;\n            value.endDate = now;\n            emit PublicKeyDeleted(publicKey);\n        }\n    }\n\n    function currentPublicKey(address subject) public validAddress(subject) returns (bytes32) {\n        if (publicKeyList[subject].length > 0) {\n            return publicKeyList[subject][publicKeyList[subject].length - 1];\n        } else {\n            return 0;\n        }\n    }\n\n    function publicKeyStatus(address subject, bytes32 publicKey)\n        public\n        validAddress(subject)\n        returns (bool exists, Status status, uint startDate, uint endDate)\n    {\n        PublicKey storage value = publicKeyRegistry[subject][publicKey];\n        return (value.exists, value.status, value.startDate, value.endDate);\n    }\n}\n",
  "sourcePath": "/Users/miwoo/Documents/Samelan/Alastria/mockup-ionic-app/alastriaApp/contracts/AlastriaPublickeyRegistry.sol",
  "compiler": {
    "name": "solc",
    "version": "0.4.24+commit.e67f0147.Emscripten.clang"
  },
  "schemaVersion": "2.0.1",
  "updatedAt": "2018-12-17T15:28:37.886Z"
}